:020000040000FA
:020000000328D3
:040002000034003492
:0A00060083160030860083161030C8
:1000100085008601051A66280614861606178514BB
:10002000851515306B20061005306B2086140530C1
:100030006B20861005306B20861405306B208610EF
:1000400005306B20861405306B20861005306B2040
:10005000861405306B20861005306B208614053021
:100060006B208610861206138510851105306B20D3
:100070000615861586170514051515306B20861193
:1000800005306B20061605306B20061205306B20FC
:10009000061605306B20061205306B20061605305B
:1000A0006B20061205306B20061605306B200612F9
:1000B00005306B20061605306B20061206118611DE
:1000C00086130510051105306B200A28831286015E
:1000D000831285010A28A2005030A1000030A00040
:1000E00000000000A00B7028A10B6E28A20B6C284A
:0200F000080006
:02400E00F13F80
:00000001FF
